:1000000000000320E50100001102000011020000C1
:100010001102000011020000110200001102000094
:100020001102000011020000110200001102000084
:100030001102000010020000110200001102000075
:100040001102000011020000110200001102000064
:100050001102000011020000110200001102000054
:100060001102000011020000110200001102000044
:100070001102000011020000110200001102000034
:100080001102000011020000110200001102000024
:100090001102000011020000110200001102000014
:1000A0001102000011020000110200001102000004
:1000B00011020000110200001102000011020000F4
:1000C00011020000110200001102000011020000E4
:1000D00011020000110200001102000011020000D4
:1000E00011020000110200001102000011020000C4
:1000F00011020000110200001102000011020000B4
:1001000011020000110200001102000011020000A3
:100110001102000011020000110200001102000093
:100120001102000011020000110200001102000083
:1001300010B5054C237833B9044B13B10448AFF321
:1001400000800123237010BD680000200000000023
:100150007805000008B5034B1BB103490348AFF312
:10016000008008BD000000006C0000207805000041
:10017000154B002B08BF134B9D46A3F5803A002179
:100180008B460F461348144A121A00F0DDF90F4B44
:10019000002B00D098470E4B002B00D09847002032
:1001A000002104000D000D48002802D00C48AFF3D8
:1001B000008000F0A5F92000290000F093F800F07D
:1001C0008BF900BF000008000000032000000000C1
:1001D00000000000680000208400002000000000F3
:1001E00000000000064880470649074A074B9A422C
:1001F000BEBF51F8040B42F8040BF8E7FFF7B8FF55
:1002000015020000840500000000002068000020A6
:10021000FEE700BF80B400AF074B084A9A60064B68
:10022000D3F88830044A43F47003C2F8883000BF22
:10023000BD465DF8047B704700ED00E00000000063
:100240009A48016821F4702141F4802101609748A7
:10025000016821F4700141F4800101609348016854
:1002600021F0706141F0806101609148016821F0E6
:10027000706141F0806101608E48016821F4702155
:1002800041F4802101608C48016821F4702141F41F
:10029000802101608648016821F4700141F48011D9
:1002A00001608648016821F00F0141F00101016001
:1002B0008348016841F0FF3101608248016841F0E4
:1002C000FF3101608048016841F0FF3101607F48E3
:1002D000016841F0FF3101607D48016841F0100183
:1002E00001607047FFF7ACFF75480168754A1368F5
:1002F000754C2568754E37685FF000085FF000099F
:10030000DFF8D0A1DAF800B0BBF5A07F00D102E0A1
:10031000BBF5807F1CD1B8F1000F4BD0B8F1010FB5
:100320004BD0B8F1020F4DD0B8F1030F4FD0B8F158
:10033000040F51D0B8F1050F53D0B8F1060F55D0C6
:10034000B8F1070F57D018F10108B8F1080F57D0CE
:10035000BBF1600F00D102E0BBF1200F1ED1B9F15B
:10036000000F50D0B9F1010F56D0B9F1020F5CD097
:10037000B9F1030F62D0B9F1040F6AD0B9F1050FDA
:1003800072D0B9F1060F7AD0B9F1070F00F084806E
:1003900019F10109B9F1080F00F085805FF0000C38
:1003A0001CF1010CBCF5001FFAD10160136025603F
:1003B0003760A5E74FF6FF71C5E74FF6FF7181F48F
:1003C0008051C0E74FF6FF7181F40051BBE74FF653
:1003D000FF7181F44051B6E74FF6FF7181F480411F
:1003E000B1E74FF6FF7181F4A041ACE74FF6FF7122
:1003F00081F4C041A7E74FF6FF7181F4E041A2E725
:100400005FF00008CAE74FF6FF734FF6FF754FF62F
:10041000FF7783F04003BBE74FF6FF734FF6FF759E
:100420004FF6FF7785F48055B2E74FF6FF734FF62E
:10043000FF754FF6FF7787F48057A9E74FF6FF73F4
:100440004FF6FF754FF6FF7783F0400385F4805534
:100450009EE74FF6FF734FF6FF754FF6FF7783F079
:10046000400387F4805793E74FF6FF734FF6FF750D
:100470004FF6FF7785F4805587F4805788E74FF66D
:10048000FF734FF6FF754FF6FF7783F0400385F457
:10049000805587F480577BE74FF6FF734FF6FF7563
:1004A0004FF6FF7774E75FF0000977E708800840B0
:1004B00094800840C8800840F88008409880084030
:1004C0000C8008409C800840CC800840FC8008409C
:1004D000B0400E40AC80084008B5074B044613B14D
:1004E0000021AFF30080054B1868836A03B1984779
:1004F000204600F031F800BF000000007405000045
:1005000070B50D4E0D4CA41BA4100025A54209D1B9
:100510000B4E0C4C00F022F8A41BA4100025A542A1
:1005200005D170BD56F8253098470135EEE756F8ED
:10053000253098470135F2E7600000206000002078
:10054000600000206400002002440346934200D172
:10055000704703F8011BF9E7FEE700BFF8B500BFDD
:10056000F8BC08BC9E467047F8B500BFF8BC08BC94
:0C0570009E4670470000002000000000C4
:08057C00F4FBFF7F0100000009
:100584000000000000000000000000000000000067
:100594000000000000000000000000000000000057
:1005A4000000000000000000000000000000000047
:1005B4000000000000000000000000000000000037
:1005C4000000000000000000000000000000000027
:1005D4000000000000000000000000000000000017
:0805E400550100003101000087
:04000003000001E513
:00000001FF
