:1000000000000320E50100001102000011020000C1
:100010001102000011020000110200001102000094
:100020001102000011020000110200001102000084
:100030001102000010020000110200001102000075
:100040001102000011020000110200001102000064
:100050001102000011020000110200001102000054
:100060001102000011020000110200001102000044
:100070001102000011020000110200001102000034
:100080001102000011020000110200001102000024
:100090001102000011020000110200001102000014
:1000A0001102000011020000110200001102000004
:1000B00011020000110200001102000011020000F4
:1000C00011020000110200001102000011020000E4
:1000D00011020000110200001102000011020000D4
:1000E00011020000110200001102000011020000C4
:1000F00011020000110200001102000011020000B4
:1001000011020000110200001102000011020000A3
:100110001102000011020000110200001102000093
:100120001102000011020000110200001102000083
:1001300010B5054C237833B9044B13B10448AFF321
:1001400000800123237010BD680000200000000023
:100150003003000008B5034B1BB103490348AFF35C
:10016000008008BD000000006C000020300300008B
:10017000154B002B08BF134B9D46A3F5803A002179
:100180008B460F461348144A121A00F0B9F80F4B69
:10019000002B00D098470E4B002B00D09847002032
:1001A000002104000D000D48002802D00C48AFF3D8
:1001B000008000F081F82000290000F053F800F0E2
:1001C00067F800BF000008000000032000000000E6
:1001D00000000000680000208400002000000000F3
:1001E00000000000064880470649074A074B9A422C
:1001F000BEBF51F8040B42F8040BF8E7FFF7B8FF55
:10020000150200003C0300000000002068000020F0
:10021000FEE700BF80B400AF074B084A9A60064B68
:10022000D3F88830044A43F47003C2F8883000BF22
:10023000BD465DF8047B704700ED00E00000000063
:100240000F48016841F0100101600E48016821F477
:10025000702141F4802101600B48016841F0FF31B9
:1002600001607047FFF7ECFF07480168074B81F416
:100270008051002201329A42FCD10160F7E700BFB1
:10028000B0400E40088008400C80084040420F00FB
:1002900008B5074B044613B10021AFF30080054BAE
:1002A0001868836A03B19847204600F031F800BF10
:1002B000000000002C03000070B50D4E0D4CA41B77
:1002C000A4100025A54209D10B4E0C4C00F022F8D9
:1002D000A41BA4100025A54205D170BD56F82530F9
:1002E00098470135EEE756F8253098470135F2E793
:1002F00060000020600000206000002064000020FA
:1003000002440346934200D1704703F8011BF9E70A
:10031000FEE700BFF8B500BFF8BC08BC9E467047BA
:10032000F8B500BFF8BC08BC9E467047000000202E
:0403300000000000C9
:080334003CFEFF7F0100000008
:10033C0000000000000000000000000000000000B1
:10034C0000000000000000000000000000000000A1
:10035C000000000000000000000000000000000091
:10036C000000000000000000000000000000000081
:10037C000000000000000000000000000000000071
:10038C000000000000000000000000000000000061
:08039C005501000031010000D1
:04000003000001E513
:00000001FF
